:100000000C94E3010C940B020C940B020C940B0265
:100010000C940B020C940B020C94330C0C940B02FA
:100020000C940B020C940B020C940B020C940B021C
:100030000C940B020C940B020C940B020C940B020C
:100040000C9461190C940B020C94B31C0C94E51CD9
:100050000C940B020C940B020C940B020C940B02EC
:100060000C940B020C940B028D010204081020402A
:10007000801B366CD8AB4D9A2F5EBC63C697356A31
:10008000D4B37DFAEFC5913972E4D3BD61C29F2527
:100090004A943366CC831D3A74E8CB8D0102040880
:1000A000102040801B366CD8AB4D9A2F5EBC63C6C7
:1000B00097356AD4B37DFAEFC5913972E4D3BD6147
:1000C000C29F254A943366CC831D3A74E8CB8D01D8
:1000D000020408102040801B366CD8AB4D9A2F5E6E
:1000E000BC63C697356AD4B37DFAEFC5913972E423
:1000F000D3BD61C29F254A943366CC831D3A74E810
:10010000CB8D01020408102040801B366CD8AB4D0B
:100110009A2F5EBC63C697356AD4B37DFAEFC5915A
:100120003972E4D3BD61C29F254A943366CC831DE6
:100130003A74E8CB8D01020408102040801B366C15
:10014000D8AB4D9A2F5EBC63C697356AD4B37DFA9F
:10015000EFC5913972E4D3BD61C29F254A943366DD
:10016000CC831D3A74E8CB52096AD53036A538BF26
:1001700040A39E81F3D7FB7CE339829B2FFF87341A
:100180008E4344C4DEE9CB547B9432A6C2233DEEB9
:100190004C950B42FAC34E082EA16628D924B2769C
:1001A0005BA2496D8BD12572F8F66486689816D4E7
:1001B000A45CCC5D65B6926C704850FDEDB9DA5E1A
:1001C000154657A78D9D8490D8AB008CBCD30AF7F9
:1001D000E45805B8B34506D02C1E8FCA3F0F02C1A4
:1001E000AFBD0301138A6B3A9111414F67DCEA9767
:1001F000F2CFCEF0B4E67396AC7422E7AD3585E26B
:10020000F937E81C75DF6E47F11A711D29C5896F32
:10021000B7620EAA18BE1BFC563E4BC6D279209A76
:10022000DBC0FE78CD5AF41FDDA8338807C731B193
:100230001210592780EC5F60517FA919B54A0D2D26
:10024000E57A9F93C99CEFA0E03B4DAE2AF5B0C87C
:10025000EBBB3C83539961172B047EBA77D626E11A
:1002600069146355210C7D637C777BF26B6FC5301D
:1002700001672BFED7AB76CA82C97DFA5947F0AD2C
:10028000D4A2AF9CA472C0B7FD9326363FF7CC34FE
:10029000A5E5F171D8311504C723C31896059A074F
:1002A0001280E2EB27B27509832C1A1B6E5AA052FA
:1002B0003BD6B329E32F8453D100ED20FCB15B6A18
:1002C000CBBE394A4C58CFD0EFAAFB434D338545BE
:1002D000F9027F503C9FA851A3408F929D38F5BCF6
:1002E000B6DA2110FFF3D2CD0C13EC5F974417C49C
:1002F000A77E3D645D197360814FDC222A90884699
:10030000EEB814DE5E0BDBE0323A0A4906245CC22A
:10031000D3AC629195E479E7C8376D8DD54EA96C61
:1003200056F4EA657AAE08BA78252E1CA6B4C6E85B
:10033000DD741F4BBD8B8A703EB5664803F60E61B7
:100340003557B986C11D9EE1F8981169D98E949BE5
:100350001E87E9CE5528DF8CA1890DBFE642684192
:10036000992D0FB054BB16000000080002010000D8
:100370000304070000000000000000010204081050
:10038000204080010204081020010204081020040B
:10039000040404040404040202020202020303032C
:1003A00003030300000000230026002900000000D2
:1003B00000250028002B0000000000240027002A50
:1003C00000003102151D11241FBECFEFD8E0DEBFA3
:1003D000CDBF12E0A0E0B1E0E2E2FEE302C0059092
:1003E0000D92A230B107D9F724E0A2E0B2E001C03B
:1003F0001D92A53EB207E1F711E0C3EED1E004C0C3
:100400002197FE010E94811EC13ED107C9F70E94BB
:10041000431D0C940F1F0C9400000F931F930FEFBC
:1004200010E02FEF30E04FEF50E06FEF70E08FE221
:1004300092E00E94D4066FE272E082E092E01F91A7
:100440000F910C9416048FE292E00E94A60780316F
:1004500021F482E092E00E94570582E092E00C9441
:10046000A305E2E0F2E0138212828EEE91E0918326
:100470008083089581E090E008950F931F93CF93B8
:10048000DF93162F082FEC018C2F801B811740F46F
:100490006FEF70E080E090E00E94F91D6993F4CF67
:1004A000DF91CF911F910F9108951F93CF93DF9309
:1004B00010E0C62FD0E02197812F90E08C179D0788
:1004C00034F488E494E00E94A71B1F5FF5CFDF910E
:1004D000CF911F910895EF92FF920F931F93CF93A7
:1004E000DF938C01C0E0D0E0F801E5A0F6A0EC0EAF
:1004F000FD1E88E494E00E94A71BF70180832196EB
:10050000C031D10589F7F80181A5815081A7DF911C
:10051000CF911F910F91FF90EF900895EF92FF926E
:100520000F931F93CF93DF93EC0188E494E00E9434
:100530008D1B4097D4F300E010E0EBA0FCA0E00E90
:10054000F11E88E494E00E94A71BF70180830F5FEF
:100550001F4F0031110589F76BA17CA1FB019B01A5
:10056000205F3F4F80E091918927E217F307D9F789
:10057000811106C08C819D810E94660780E006C0C3
:1005800069E071E0CE010E94921D81E0DF91CF9180
:100590001F910F91FF90EF900895EF92FF921F939C
:1005A000CF93DF931F92CDB7DEB7162F7B018E2D31
:1005B000811B841750F4F70161917F0188E494E076
:1005C00049830E940C1C4981F2CF0F90DF91CF919B
:1005D0001F91FF90EF9008950F931F93CF93DF9398
:1005E000EC016330710509F4F4C0B4F561307105B4
:1005F00009F45EC06230710509F013C1EFA1F8A5DE
:1006000081E18083EFA1F8A582E081830BA11CA189
:100610000E947215F80190830BA11CA10E94721513
:10062000F80181830BA11CA10E947215F80172834D
:100630000BA11CA10E947215F80163838BA19CA1E0
:100640006BE004960E943D02EBA1FCA1DF019F013B
:10065000215F3F4F80E0A9C06630710509F4D5C025
:100660006730710509F0DDC0EDA1FEA181E1808355
:10067000EDA1FEA187E08183ADA1BEA11296FE018E
:100680003D9680E101900D928A95E1F76DA17EA1E2
:1006900042E1CE010E94CD0240E050E860E070E00F
:1006A000CE010696DF91CF911F910F910C943915D1
:1006B0008CA5811171C04FEF50E96EE170E0CE0161
:1006C00006960E943915EBA1FCA18DE08083EBA179
:1006D000FCA181E0818380EA0E944114882321F1FA
:1006E0000BA11CA160EA80E190E00E949714F80140
:1006F00082830BA11CA160EA81E190E00E94971423
:10070000F80183830BA11CA160EA82E190E00E94C2
:100710009714F80184830BA11CA160EA83E190E0A7
:100720000E949714F80185830BA11CA180E193E03E
:100730000E94F91EF80186830BA11CA181E193E0C0
:100740000E94F91EF80187830BA11CA182E193E0AE
:100750000E94F91EF80180870BA11CA183E193E0A0
:100760000E94F91EF801818764E0CE014D960E9437
:100770003D02EBA1FCA18D8D9E8DAF8DB8A182872E
:100780009387A487B5876BA17CA14EE0CE010E9420
:10079000CD0281E08CA745C063E371E0CE01DF911B
:1007A000CF911F910F910C94921D9D918927A217B3
:1007B000B307D9F787874FA158A54E5F5F4FBE019A
:1007C000635F7F4F8BA19CA10E9486176FA178A5C4
:1007D00014C0EDA1FEA181E18083EDA1FEA183E023
:1007E0008183ADA1BEA11296EBA1FCA180E1019095
:1007F0000D928A95E1F76DA17EA142E1CE01DF91D4
:10080000CF911F910F910C94CD02EBA1FCA181E03F
:100810008083EBA1FCA186E081836BA17CA142E0F7
:10082000EDCFDF91CF911F910F910895EF92FF923D
:100830000F931F93CF93DF93EC018B017C0186E034
:10084000E80EF11C2FEF4FEF6FEFC7010E94DE148F
:1008500040E056EE6FEF70E0C7010E94391526E0C8
:1008600040E056E960E070E088E494E00E94531CA8
:1008700061E571E0CE010E94921D1D830C83C801C9
:100880000E94940798A78FA38C819D810E949A074C
:100890009EA38DA38C819D810E948E079CA38BA318
:1008A0008C819D810E94A0079AA389A382E00E9467
:1008B000531ABC01990F880B990B0E94F11D1CA6BD
:1008C00061E070E0CE010E94EC0219A61BA61AA6F8
:1008D000DF91CF911F910F91FF90EF900895EF92CC
:1008E000FF920F931F93CF93DF93EC0188E494E082
:1008F0000E948D1B4097D4F300E010E0EDA0FEA015
:10090000E00EF11E88E494E00E94A71BF7018083AB
:100910000F5F1F4F0031110589F74BA15CA169A141
:100920007AA18DA19EA10E944D180BA11CA1F801D6
:100930009801205F3F4F80E091918927E217F307EC
:10094000D9F7811162C044E050E0B8016C5F7F4F7D
:10095000CE014D960E94E31E892B09F05FC0F8017D
:1009600020816181862F90E0A0E0B0E0DC01992732
:100970008827B22B2381822B2281BC01CD01722BCF
:100980000E943F1588E494E00E948D1B4097D4F3A9
:1009900000E010E0EDA0FEA0E00EF11E88E494E07F
:1009A0000E94A71BF70180830F5F1F4F00311105C5
:1009B00089F74BA15CA169A17AA18DA19EA10E949A
:1009C0004D18DE011D96EBA1FCA180E101900D9276
:1009D0008A95E1F762E070E0CE010E94EC0281E0CE
:1009E0008AA71CA667E070E0CE010E94EC0240E0FE
:1009F00050E860E070E0CE010696DF91CF911F9144
:100A00000F91FF90EF900C94391561E1CE010E9497
:100A1000550266E671E0CE010E94921D61E070E031
:100A2000CE01DF91CF911F910F91FF90EF900C9429
:100A3000EC02CF92DF92FF920F931F93CF93DF933D
:100A40001F92CDB7DEB7F62E8A01CA010196682F34
:100A500088E494E079830E940C1C6DED88E494E0B6
:100A60000E940C1CCF2C7981D72E0C0D1D1DC01699
:100A7000D10641F0F60161916F0188E494E00E9493
:100A80000C1CF5CF80E090E00F90DF91CF911F918B
:100A90000F91FF90DF90CF90089561E088E494E09B
:100AA0000E940C1C6DEE88E494E00C940C1CCF9317
:100AB000DF93EC018AA5882301F163E070E0CE01A9
:100AC0000E94EC0288E494E00E94EA1B269640E033
:100AD00050E86FEF70E0CE010E9439156AE070E0D7
:100AE00080E090E00E94DC1940E050E860E070E0B7
:100AF000CE010E94391580E00BC066E871E0CE019E
:100B00000E94921D61E070E0CE010E94EC0283E041
:100B1000DF91CF910895CF93DF93EC010E946B0298
:100B20008C819D810E94380A882351F0CE010E9459
:100B30005705682F8C819D81DF91CF910C94D90747
:100B4000DF91CF910895CF92DF92EF92FF920F93B2
:100B50001F93CF93DF93EC0188E494E00E948D1BF8
:100B600002970CF4A8C089A581115EC088E494E0C6
:100B70000E94A71B7C0188E494E00E94A71B8C01C3
:100B80009C0133272232310569F184F42132310589
:100B900009F065C04FEF5FEF63E370E0CE010696AA
:100BA0000E943915CE010E946F0474C023323105B2
:100BB00031F46701DD248601015011091DC0243282
:100BC000310509F04CC040E056EE6FEF70E0CE0109
:100BD00006960E9439151CA661E070E0CE010E94C5
:100BE000EC0258C0CE010E948E02811103C081E048
:100BF0008BA750C01BA64EC088E494E00E948D1BBA
:100C000080179107CCF39BA58AA5992389F08823A7
:100C100089F0C80117FF02C0C6010E9624E0959521
:100C200087952A95E1F789A7CE010E948B0532C0EE
:100C300081110BC06CEA71E0CE010E94921D61E04F
:100C400070E0CE010E94EC0205C067EC71E0CE01BD
:100C50000E94921D6E2DCE010E9455021BC068EDB0
:100C600071E0CE010E94921D4AE050E0602FCE015B
:100C70000E94EA1D88E494E00E948D1B1816190654
:100C80004CF488E494E00E948D1B682FCE010E94F2
:100C90005502F0CF88E494E00E948D1B892B59F413
:100CA000CE01DF91CF911F910F91FF90EF90DF90D8
:100CB000CF900C944D05DF91CF911F910F91FF9034
:100CC000EF90DF90CF9008950C94F91E0C94011FC3
:100CD000CF92DF92EF92FF920F931F93CF93DF9308
:100CE000CDB7DEB760970FB6F894DEBF0FBECDBFAD
:100CF0008C0181E9898382E08A836B831C827E0177
:100D000085E0E80EF11C6E01ECE0CE0ED11C6FEF19
:100D100070E080E090E00E94F91DF70161937F018F
:100D2000EC15FD05A1F7F801E45DFE4F0190F0819F
:100D3000E02D83858C8784858D87F801E357FF4FED
:100D400080818E873C9680818F87FE013196AE012F
:100D5000405F5F4F20E0CF0131912327E417F50773
:100D6000D9F7288BF801E25DFE4F4081518136971B
:100D7000608171810E94861760E0C8010E9466113F
:100D800091E0811101C090E0892F60960FB6F89430
:100D9000DEBF0FBECDBFDF91CF911F910F91FF90AE
:100DA000EF90DF90CF9008950F931F93CF93DF9331
:100DB000EC010E949B0EFE01EB5CFE4F9183808351
:100DC0002FEF4FEF6FEFCE018B579F4F0E94DE1436
:100DD000CE010E94280CFE01E45DFE4F91838083CA
:100DE000CE010E942A0CFE01E25DFE4F91838083BA
:100DF000CE010E942D0CFE01E05DFE4F91838083A9
:100E0000CE010E94300CFE01EA5DFE4F918380838B
:100E1000CE010E94310CFE01E85DFE4F918380837C
:100E2000CE010E94260CFE01E65DFE4F9183808379
:100E300087EF93E00E9464068130D1F400E413E070
:100E4000C8010E946406682FC80108970E946606C0
:100E50000F5F1F4F043483E0180791F76FEF80E4B2
:100E600093E00E94660660E087EF93E00E946606CA
:100E700084E393E00E946406FE01E357FF4F808302
:100E800086E393E00E946406FE01E557FF4F8083EE
:100E900085E393E00E946406FE01E257FF4F8083E2
:100EA00087E393E00E946406FE01E457FF4F8083CE
:100EB000E955FF4F108234961082CE0181579F4F23
:100EC000DF91CF911F910F910C94870AEF92FF92BF
:100ED0000F931F93CF93DF93EC017B01FC01E65D41
:100EE000FE4F44E050E0808191810E94E31E8E011C
:100EF0000E5C1E4F892B21F481E0F801808307C02E
:100F000042E4B701CE010E944F0EF8011082DF913A
:100F1000CF911F910F91FF90EF900895FC01E45D38
:100F2000FE4F808191810895FC01E25DFE4F80813A
:100F300091810895FC01E05DFE4F808191810895CB
:100F4000FC01EA5DFE4F808191810895CF93DF938C
:100F5000EC0160E00E949A0D882311F080E023C02C
:100F6000FE01E85DFE4F60817181CE010E944C0C54
:100F70008111F4CFFE01E45DFE4F0190F081E02D80
:100F80008081873779F462E0CE010E949B12FE01D6
:100F9000E85CFE4F80838150823020F460E0CE0117
:100FA0000E94680680E1DF91CF91089560E00C9483
:100FB0006611CF93DF9361113DC0FC01EC5CFE4FE5
:100FC00020812135B9F533962081222399F1EC0156
:100FD00064E670E080E090E00E94DC19CB5CDE4FBC
:100FE000288139812830310534F02E30310534F034
:100FF000E8E2F0E005C0EBE2F0E002C0E5E2F0E09C
:1010000040812830310544F02E3031051CF4285041
:10101000310902C02E50310981E090E0A0E0B0E03B
:1010200004C0880F991FAA1FBB1F2A95D2F780956D
:1010300084238083DF91CF910895AF92BF92CF92A6
:10104000DF92EF92FF920F931F93CF93DF9300D025
:101050001F92CDB7DEB78C01362F84E0E82EF12C3D
:10106000580184EDA81A8EEFB80AD501CD90DC9016
:10107000CE0CDF1C6FEF70E080E090E02B833983B3
:101080004A830E94F91DF6016083FFEFEF1AFF0A01
:101090002B8139814A818BE0E816F10431F7D501C3
:1010A000ED91FC9111973083ED91FC91D801A557FA
:1010B000BF4F8C918387D501ED91FC91D801A45746
:1010C000BF4F8C918487D501ED91FC91D801A35736
:1010D000BF4F8C918587D501ED91FC91D801A25726
:1010E000BF4F8C918687393471F4D501ED91FC9115
:1010F000119782E08183ED91FC9111974283ED91EC
:10110000FC91238342C03A34A9F4D501ED91FC91BE
:1011100084E08183C8010E94CF0CD501ED91FC9140
:10112000DC014D915D916D917C9142835383648389
:1011300075832BC03737B9F5D501ED91FC9188E067
:10114000818302E010E0F501E080F180E00EF11E05
:10115000C8018A5C9C4F0E946406D7018C930F5F84
:101160001F4F0630110579F7F501E080F180E00EA0
:10117000F11EC801865D9C4F0E946406D7018C93C6
:101180000F5F1F4F0A30110579F7D501ED91FC91E2
:10119000DF019F01215F3F4F80E09D918927A217CA
:1011A000B307D9F787870F900F900F90DF91CF91FA
:1011B0001F910F91FF90EF90DF90CF90BF90AF9075
:1011C0000895CF92DF92EF92FF920F931F93CF93E8
:1011D000DF93EC0186E393E00E9464068E010557DD
:1011E0001F4FD8018C9387E393E00E9464067E0131
:1011F000BCE8EB0EF11CF7018083C45DDE4FC880B4
:10120000D98042E050E0B801C6010B960E94E31E6F
:1012100097FD18C0D6011B966C9186E393E00E945F
:101220006606E881F981648587E393E00E9466069B
:10123000E881F9818385D8018C938485F7018083C7
:1012400080E001C081E0DF91CF911F910F91FF906D
:10125000EF90DF90CF900895CF92DF92EF92FF92C0
:101260000F931F93CF93DF9300D0CDB7DEB78C01E0
:10127000FC01EA5DFE4F608171810E944C0C81117E
:10128000E3C0780184EDE81A8EEFF80AD701ED91FA
:10129000FC9180816801BCECCB1ABEEFDB0AD60161
:1012A0008C93853509F49AC080F4813409F460C0C8
:1012B00038F4843309F47BC0803409F445C0C4C0D9
:1012C0008055823008F48AC0BFC08237E9F138F413
:1012D000803609F483C0843609F487C0B5C08337EB
:1012E00009F446C0883709F0AFC08585D801A357F7
:1012F000BF4F8C93868511968C93838513978C931F
:10130000848511968C93658584E393E00E9466063C
:10131000D701ED91FC91668585E393E00E94660616
:10132000D701ED91FC91638586E393E00E94660608
:10133000D701ED91FC91648587E393E00E946606F6
:1013400020E040E067E785C0C8010E94E108811104
:101350007BC0F701408151814E5F5F4F60E0C80163
:101360000E946B12F801ED5CFE4F81E080836CC03F
:10137000C8010E94E108811169C06801FDECCF1A23
:10138000FEEFDF0AD6018C91882309F45FC0D701F4
:101390004D915C914E5F5F4F61E0C8010E946B12FE
:1013A000C8010E947B12F601108220E050C08085A7
:1013B00061E0882361F0C8010E949B12882351F0EC
:1013C00061E0C8010E944913882321F00CC0C801C4
:1013D0000E94B81320E0D6014C913AC0C8010E9487
:1013E000E108882311F021E02CC01982D7016D910A
:1013F0007C91AE014F5F5F4FC80181579F4F0E94A4
:10140000CA0A282F89818823F9F0F6018081843661
:1014100079F443E359E96FEF70E0C8018B579F4FB0
:101420002A830E94391585E5D6018C932A8109C04B
:101430002D3039F4813529F481E0F801E95CFE4F63
:101440008083F601408104C080E007C021E041E4D0
:1014500069E4C8010E941D0881E00F900F90DF91A0
:10146000CF911F910F91FF90EF90DF90CF90089553
:101470000F931F93CF93DF93EC01FC01EE5CFE4FC3
:1014800010818B579F4F112369F040E05FEF60E0C0
:1014900070E00E943915CE01DF91CF911F910F911D
:1014A0000C942C0943E359E96FEF70E00E94391561
:1014B000FE01E25DFE4FA081B18132960190F08184
:1014C000E02D80E101900D928A95E1F760E0CE0178
:1014D0000E9466118130A9F404E0CE010E94D60773
:1014E000882379F06EE170E080E090E00E94DC19E2
:1014F000015099F720E040E06AE4CE010E941D0807
:1015000011E0812FDF91CF911F910F910895CF931B
:10151000DF93FC0111821082E657FF4F1082319653
:10152000108233961082EC01C357DF4F21E02883ED
:1015300032972FEF208334971182108280EA0E9425
:101540004114882319F0188280E001C081E0DF9106
:10155000CF9108951F93CF93DF93EC0188819981F8
:101560009C012058310921153F4D80F460EA0E940A
:101570007114269610E089910E948C141F5F103818
:10158000D1F7DF91CF911F910C948E14DF91CF9101
:101590001F9108958F929F92AF92BF92CF92DF9248
:1015A000EF92FF920F931F93CF93DF93EC01FB0118
:1015B0008081853509F466C06A017B01863530F487
:1015C000803551F0813509F4ECC026C1803691F1A7
:1015D000843609F486C020C181E0FA018083FB01D2
:1015E0001181113009F018C1FB018281FE01E4571D
:1015F000FF4F8083DE01A857BF4F11961C921E92A9
:101600002FEF3FEF3B832A8315969C91913011F089
:10161000883231F468E288E493E00E94011FFAC046
:101620008D3119F08FEF8083F8C080E090E79D83C3
:101630008C83A9C081E0FA018083FB018181823023
:1016400009F0EAC0FE01E457FF4F80818F3F09F4A3
:10165000E3C0CA57DF4FFB01228130E0322F22273F
:101660008381282B3983288360EA8AE090E00E94F6
:10167000711416E080E00E948C141150D9F70E947A
:101680008E14CBC08181823009F0C6C0DE01A45720
:10169000BF4F8C918F3F09F4BFC0828190E0982F9B
:1016A00088272381822B998388832A813B81FE01AD
:1016B000E157FF4F2817390719F021E0208301C0B7
:1016C00010822C813D81820F931F99838883FE01B4
:1016D000E557FF4F108231971082C257DF4F1882B3
:1016E00052C0FE01E457FF4F80818F3F09F494C040
:1016F000FB01818122815E01FAE8AF0EB11CF50188
:101700009081291342C01FEF180F4E01FBE88F0E86
:10171000911CF401808190E0412F50E09C01240F46
:10172000351F213831059CF506966D5F7F4F8C0F74
:101730009D1F0E94F01EF4019081812F890F8083EC
:10174000F50190819F5F90838038E9F4FE01E157B5
:10175000FF4F80818823A1F0CE010E94AA0AFE01DA
:10176000E857FF4F8081918180589F4F91838083FC
:10177000888199812C813D81821B930B9B838A8375
:1017800081E0F601808310E048C02917E0F3C257DA
:10179000DF4F8881811140C081E0F601808388831A
:1017A0003BC081E0FA018083FB0181818430A1F597
:1017B000FE01E457FF4F60816F3F71F134978081E4
:1017C0009181CA57DF4F288139818217930711F021
:1017D000892B11F588E493E00E94011F60EA8AE0FA
:1017E00090E00E9471146701F2E0CF0ED11C8701D6
:1017F0000A5F1F4FF60181916F010E948C14C01681
:10180000D106C1F789810E948C1488810E948C14B2
:101810000E948E141DE001C011E0812FDF91CF9155
:101820001F910F91FF90EF90DF90CF90BF90AF90FE
:101830009F908F9008950C94F91E0C94011F8EBDFB
:1018400000000DB407FEFDCF8EB50895C096089533
:10185000CC960895825B9F4F0895805A9F4F0895BC
:101860000895409608951F920F920FB60F9211247B
:101870008F939F93A89599E288E10FB6F894A89565
:10188000809360000FBE909360009F918F910F90A6
:101890000FBE0F901F9018950F931F93CF93DF9358
:1018A0008C01EC01EC96AE01805A9F4F0E944D18BE
:1018B000FE019801245B3F4F80E091918927E21758
:1018C000F307D9F7811107C081E0F80195AD9E308B
:1018D00018F480E001C081E0DF91CF911F910F915A
:1018E0000895CF93DF93EC01CC58DF4F28813981E5
:1018F0002830310534F02E30310534F0E8E2F0E0E4
:1019000005C0EBE2F0E002C0E5E2F0E080812830C3
:10191000310544F02E3031051CF42850310902C045
:101920002E50310941E050E060E070E004C0440F07
:10193000551F661F771F2A95D2F74095482340838D
:1019400081EE0E941F0C288139812830310534F046
:101950002E30310534F4E5E2F0E005C0EBE2F0E0D2
:1019600002C0E8E2F0E040812830310544F02E303A
:1019700031051CF42850310902C02E50310981E094
:1019800090E0A0E0B0E004C0880F991FAA1FBB1F21
:101990002A95D2F7842B8083DF91CF910895C49646
:1019A00008950F931F93CF938C010C581F4F60E045
:1019B000F80180810E94341B87E20E941F0CC82F0F
:1019C00080E30E941F0C61E0F80180810E94341BBB
:1019D000C5FBCC27C0F981E08C27CF911F910F91D7
:1019E0000895AF92BF92CF92DF92EF92FF920F9342
:1019F0001F93CF93DF93EC016C0182E7C80ED11CDB
:101A000060E0F60180810E94341B8E010C581F4F4C
:101A100060E0F80180810E94341B81E60E941F0C67
:101A20007E01F0E6EF0EF11C5E0180E7A80EB11C0E
:101A300080E00E941F0CF70181937F01EA15FB05EE
:101A4000B9F761E0F80180810E94341B60E0F80181
:101A500080810E94341B87E20E941F0C80E40E9458
:101A60001F0C61E0F80180810E94341B60E0F801E6
:101A700080810E94341B87E10E941F0C80E00E943D
:101A80001F0CF82E61E0F80180810E94341BC658BB
:101A9000DF4FF0FC03C081E0888301C0188261E061
:101AA000F6018081DF91CF911F910F91FF90EF9010
:101AB000DF90CF90BF90AF900C94341BEF92FF92C9
:101AC0001F93CF93DF931F92CDB7DEB7162F8C589D
:101AD0009F4F7C0160E0FC01808149830E94341BA0
:101AE000812F0E941F0C4981842F0E941F0C61E0EE
:101AF000F70180810F90DF91CF911F91FF90EF90C0
:101B00000C94341B23B7217F246023BF10927A00EA
:101B10004DE060E20E945E0DE0E6F0E080818064CE
:101B20008083A89583B7816083BF889583B78E7FB4
:101B300083BF08950F931F93CF93DF931F92CDB769
:101B4000DEB78C01A895FC01EA58FF4F80816983BC
:101B50000E94641B69811816190634F4F801E658CE
:101B6000FF4F8081882329F0C8010E94F10C80E09A
:101B700006C0613019F4C8010E94820D86E00F9002
:101B8000DF91CF911F910F910895CF92DF92EF9245
:101B9000FF920F931F93CF93DF931F92CDB7DEB7C2
:101BA000D62E7A018C010C581F4F60E0F80180811D
:101BB00029830E94341B8D2D0E941F0C2981822FA6
:101BC0000E941F0C6701F4E0CF0ED11CF601829138
:101BD0006F010E941F0CCE14DF04C1F761E0F80111
:101BE00080810F90DF91CF911F910F91FF90EF9027
:101BF000DF90CF900C94341BFF920F931F93CF93E1
:101C0000DF93EC01162F4EE060E20E945E0D1C3B5C
:101C100029F022E4AE014C5C5F4F04C02CEBAE0116
:101C2000485C5F4F6AE2CE010E94C50DFE01EE588E
:101C3000FF4F60E080810E94341B8E010C581F4FC3
:101C400060E0F80180810E94341B87E20E941F0C33
:101C500080E40E941F0C61E0F80180810E94341B27
:101C600060E0F80180810E94341B87E10E941F0C14
:101C700080E00E941F0CF82E61E0F80180810E9434
:101C8000341BC658DF4FF0FC03C081E0888301C0DD
:101C90001882DF91CF911F910F91FF900895CF92FD
:101CA000DF92EF92FF92242FAC014C5C5F4FFB015F
:101CB000C080D180E280F380FC01C4AAD5AAE6AA44
:101CC000F7AA60E3FF90EF90DF90CF900C94C50DE2
:101CD0000F931F93CF93DF93EC014FE060E20E94DC
:101CE0005E0DAE01485C5F4F2CEB6AE2CE010E94B4
:101CF000C50DAE01405D5F4F22E46BE2CE010E9454
:101D0000C50D8E010C581F4F60E0F80180810E94C4
:101D1000341B81EE0E941F0C61E0F80180810E945B
:101D2000341BCE58DF4F61E08881DF91CF911F9146
:101D30000F910C94341B6F927F928F929F92AF926F
:101D4000BF92CF92DF92EF92FF920F931F93CF93A8
:101D5000DF93EC014A017901A8956C0182E7C80E76
:101D6000D11CF601718360836F3F710541F482EFEE
:101D700093E00E941B0C90E0F60191838083F601B2
:101D8000808191818F3F910511F0892B29F48FE09B
:101D900090E0F601918380835E01F4E7AF0EB11C01
:101DA000F50191828082FFEF8F16910441F481EF5B
:101DB00093E00E941B0C90E0F50191838083F50174
:101DC000808191818F3F910511F0892B29F48EE05C
:101DD00090E0F501918380834E01F6E78F0E911C10
:101DE000F401F182E082FFEFEF16F10441F480EF9D
:101DF00093E00E941B0C90E0F40191838083F40136
:101E0000808191818F3F910511F0892B29F482E027
:101E100090E0F401918380837E01F8E7EF0EF11CDE
:101E2000F701118300830F3F110541F486EF93E022
:101E30000E941B0C90E0F70191838083F701808161
:101E400091818F3F910511F0892B29F484E090E076
:101E5000F70191838083F60140815181483051051B
:101E600034F04E30510534F0E7E2F0E005C0EAE22C
:101E7000F0E002C0E4E2F0E020814830510544F097
:101E80004E3051051CF44850510902C04E505109C2
:101E900081E090E0A0E0B0E004C0880F991FAA1F85
:101EA000BB1F4A95D2F7822B8083F5014081518177
:101EB0004830510534F04E30510534F4E4E2F0E09E
:101EC00005C0EAE2F0E002C0E7E2F0E0208148303D
:101ED000510544F04E3051051CF44850510902C0E0
:101EE0004E50510981E090E0A0E0B0E004C0880FBE
:101EF000991FAA1FBB1F4A95D2F7822B8083F4013A
:101F0000408151814830510534F04E30510534F054
:101F1000E7E2F0E005C0EAE2F0E002C0E4E2F0E06F
:101F200020814830510544F04E3051051CF4485092
:101F3000510902C04E50510981E090E0A0E0B0E0AC
:101F400004C0880F991FAA1FBB1F4A95D2F780951E
:101F500082238083F701408151814830510534F05C
:101F60004E30510534F0E8E2F0E005C0EBE2F0E07D
:101F700002C0E5E2F0E020814830510544F04E30E7
:101F800051051CF44850510902C04E50510981E0DE
:101F900090E0A0E0B0E004C0880F991FAA1FBB1F0B
:101FA0004A95D2F7822B8083F701408151814830D6
:101FB000510534F04E30510534F0E7E2F0E005C051
:101FC000EAE2F0E002C0E4E2F0E0208148305105AE
:101FD00044F04E3051051CF44850510902C04E5097
:101FE000510981E090E0A0E0B0E004C0880F991FA3
:101FF000AA1FBB1F4A95D2F7822B8083F50140812F
:1020000051814830510534F04E30510534F4E5E249
:10201000F0E005C0EBE2F0E002C0E8E2F0E0208191
:102020004830510544F04E3051051CF448505109D8
:1020300002C04E50510981E090E0A0E0B0E004C041
:10204000880F991FAA1FBB1F4A95D2F7822B808346
:10205000F601408151814830510534F04E30510530
:1020600034F4E5E2F0E005C0EBE2F0E002C0E8E2C3
:10207000F0E020814830510544F04E3051051CF409
:102080004850510902C04E50510981E090E0A0E053
:10209000B0E004C0880F991FAA1FBB1F4A95D2F752
:1020A0008095822380838CB58F7D8CBD8CB5837F9A
:1020B0008CBD8CB58C7F8CBD8DB581608DBD0E9433
:1020C000041664E670E080E090E00E94DC194E01A6
:1020D000F0E38F0E911C00E113E0C8010E941B0C7D
:1020E000F40181934F010F5F1F4F0431F3E01F078D
:1020F000A1F74E0180E1880E911C3E0100E513E03E
:10210000C8010E941B0CF40181934F01C801805546
:1021100091090E941B0CF30181933F010F5F1F4F38
:102120000036F3E01F0761F743E062E2CE010E9450
:102130005E0D43E061E2CE010E945E0D43E063E28A
:10214000CE010E945E0D43E164E2CE010E945E0D6D
:1021500042E465E2CE010E945E0D40E161E3CE0102
:102160000E945E0D40E162E3CE010E945E0D46E2F8
:1021700066E2CE010E945E0DF5014081518148303A
:10218000510534F04E30510534F4E5E2F0E005C07D
:10219000EBE2F0E002C0E8E2F0E0208148305105D7
:1021A00044F04E3051051CF44850510902C04E50C5
:1021B000510981E090E0A0E0B0E004C0880F991FD1
:1021C000AA1FBB1F4A95D2F780958223808382EE97
:1021D0000E941F0CF501408151814830510534F0B7
:1021E0004E30510534F4E5E2F0E005C0EBE2F0E0FA
:1021F00002C0E8E2F0E020814830510544F04E3062
:1022000051051CF44850510902C04E50510981E05B
:1022100090E0A0E0B0E004C0880F991FAA1FBB1F88
:102220004A95D2F7822B8083FE01E658FF4F108239
:10223000CE010E94710C40E767E2CE010E945E0D64
:10224000F601408151814830510534F04E3051053E
:1022500034F4E5E2F0E005C0EBE2F0E002C0E8E2D1
:10226000F0E020814830510544F04E3051051CF417
:102270004850510902C04E50510981E090E0A0E061
:10228000B0E004C0880F991FAA1FBB1F4A95D2F760
:10229000822B808318AE81E089AF82E08AAF83E031
:1022A0008BAFCE010E94680EF70180819181DF9192
:1022B000CF911F910F91FF90EF90DF90CF90BF9043
:1022C000AF909F908F907F906F9008958F929F9284
:1022D000AF92BF92CF92DF92EF92FF920F931F9334
:1022E000CF93DF93EC01162F0E94AB196B017C0199
:1022F000612FCE010E94FC0D8E010C581F4FF8017A
:10230000408151814830510534F04E30510534F050
:10231000E8E2F0E005C0EBE2F0E002C0E5E2F0E068
:1023200020814830510544F04E3051051CF448508E
:10233000510902C04E50510981E090E0A0E0B0E0A8
:1023400004C0880F991FAA1FBB1F4A95D2F780951A
:102350008223808380EA0E941F0C5E01FEE4AF0EA0
:10236000B11C4E018EE5880E911CF50181915F0133
:102370000E941F0CA814B904C1F7F80140815181D3
:102380004830510534F04E30510534F4E5E2F0E0C8
:1023900005C0EBE2F0E002C0E8E2F0E02081483066
:1023A000510544F04E3051051CF44850510902C00B
:1023B0004E50510981E090E0A0E0B0E004C0880FE9
:1023C000991FAA1FBB1F4A95D2F7822B80838E01CB
:1023D0000E581F4FF801408151814830510534F0AB
:1023E0004E30510534F0E8E2F0E005C0EBE2F0E0F9
:1023F00002C0E5E2F0E020814830510544F04E3063
:1024000051051CF44850510902C04E50510981E059
:1024100090E0A0E0B0E004C0880F991FAA1FBB1F86
:102420004A95D2F7822B80835E01F6E7AF0EB11C8E
:10243000F50180810E94641B892B69F00E94AB1911
:10244000DC01CB018C199D09AE09BF0985369105C8
:10245000A105B10568F3F8012081318128303105EB
:102460001CF4EBE2F0E008C02E3031051CF0E8E28D
:10247000F0E002C0E5E2F0E080812830310544F070
:102480002E3031051CF42850310902C02E5031097C
:1024900041E050E060E070E004C0440F551F661F4B
:1024A000771F2A95D2F7409548234083CE010E949A
:1024B000D10C182FCE010E94680E812FDF91CF9191
:1024C0001F910F91FF90EF90DF90CF90BF90AF9052
:1024D0009F908F900895623068F48096DC0128E028
:1024E000629FA00DB11D112488E0FA0101900D92A8
:1024F0008A95E1F708950F931F93CF93DF93EC0133
:102500006096FC01B09680E1DE0101900D928A9503
:10251000E1F700E010E06991C801805B9C4F0E94E8
:102520001D0C0F5F1F4F00311105A9F7DF91CF91EF
:102530001F910F9108952F923F924F925F926F9249
:102540007F928F929F92AF92BF92CF92DF92EF9243
:10255000FF920F931F93CF93DF9300D000D01F9271
:10256000CDB7DEB76C01698300271127081B190B53
:10257000212C312C85589F4F9D838C83F601EB577E
:10258000FF4FFB83EA837601FEE3EF0EF11C560159
:1025900083E8A80EB11C460199E4890E911C4C8079
:1025A0005D803801EBE86E1AEEEF7E0AC301840D00
:1025B000951D0E941B0CF20181932F018A819B8142
:1025C000E817F90799F799819130E1F444E050E078
:1025D0006C817D81C7010E94E31E892BA9F5F6015C
:1025E000EC5BFF4F6081FD9680816817C9F1C101E6
:1025F00023E0880F991F2A95E1F78A509E4F0E9489
:102600001D0C2EC0E981E23099F442E050E0B501A2
:10261000C4010E94E31E892BB9F442E46C817D81E0
:10262000C6010E944F0EF601EF57FF4F808119C07F
:10263000F981F33049F444E050E06C817D81C701B9
:102640000E94E31E892B61F08FEF281A380A005F81
:102650001F4F98E02916310409F0A1CF80E101C095
:1026600080E00F900F900F900F900F90DF91CF911F
:102670001F910F91FF90EF90DF90CF90BF90AF90A0
:102680009F908F907F906F905F904F903F902F9092
:102690000895CF92DF92EF92FF920F931F93CF9303
:1026A000DF9300D0CDB7DEB78C0190EFE92EFF2489
:1026B000F39420E0C70129836A830E941B0C2981BF
:1026C0006A818F3F19F4273029F00AC0273011F4AE
:1026D00081E043C02F5F90E1E90EF11C283051F7F3
:1026E0006130E1F478018EE3E80EF11C90E1299F5E
:1026F00090011124F901EC50FE4F6F010B5B1F4F4D
:10270000F70161917F01C6010E941D0CFFEFCF1AF6
:10271000DF0AE016F106A1F780E01FC06330E1F7A1
:1027200030E0215E3F4F690184E0CC0CDD1C8A95CE
:10273000E1F7025C1F4FE12CF12CF80161918F0150
:10274000C7018C0D9D1D0E941D0CFFEFEF1AFF0AA3
:1027500088E0E816F10489F7DFCF0F900F90DF9142
:10276000CF911F910F91FF90EF90DF90CF90089540
:102770006F927F928F929F92AF92BF92CF92DF9291
:10278000EF92FF920F931F93CF93DF93633009F083
:1027900046C0EE24FF24E81AF90AC0E0D0E06C013C
:1027A0002BE7C20ED11C5C01E5E8AE0EB11C8C011A
:1027B000025C1F4F460137012BE8621A2EEF720AA6
:1027C000C301880D991D0E941B0CF40181934F01D8
:1027D000EA15FB05A9F744E050E0B601C8010E94E4
:1027E000E31E892BA9F46F9684E0CC0FDD1F8A9538
:1027F000E1F700E010E06FEFC8018C0F9D1F0E9411
:102800001D0C0F5F1F4F0A301105A9F780E008C0AB
:102810002196F0E1EF0EF11CC830D10559F681E0A8
:10282000DF91CF911F910F91FF90EF90DF90CF90AC
:10283000BF90AF909F908F907F906F90089510926F
:10284000BC0084EA8093BC008091BC0087FFFCCF71
:102850009091B900987F81E0983009F080E0089568
:102860008093BB0084E88093BC008091BC0087FF0C
:10287000FCCF9091B900987F81E0983109F080E019
:102880000895CF93C82F449A459A1092B90080E2D8
:102890008093B8000E941F14882319F08C2F0E9487
:1028A000301494E99093BC00CF9108958093BB00BD
:1028B00084E88093BC008091BC0087FFFCCF90919E
:1028C000B900987F81E0983209F480E0089584E8A7
:1028D0008093BC008091BC0087FFFCCF8091BB003F
:1028E00008951F93CF93DF9300D0CDB7DEB7182F95
:1028F00069839A830E941F146981862F0E94301475
:102900009A81892F0E945614812F0F900F90DF918A
:10291000CF911F910C9456140C94561484E9809313
:10292000BC0065E070E080E090E00C94DC190F934F
:102930001F93CF93DF931F92CDB7DEB7082F162FCB
:1029400099830E941F14812F0E9430149981892F2E
:102950000E945614802F0E9456140E941F1481E07A
:10296000810F0E9430140E94671494E99093BC0078
:102970000F90DF91CF911F910F9108950F931F93A7
:10298000CF93DF93EC018B810FEF10E0B801681B50
:10299000710988810E94701A8C81B801681B7109C5
:1029A00089810E94701A8D81B801681B71098A8122
:1029B000DF91CF911F910F910C94701AEF92FF92BB
:1029C0001F93CF93DF931F92CDB7DEB77C01122FF9
:1029D000FC0160836F3F41F483EF93E049830E94E1
:1029E000F91EF70180834981F701808181508E3F74
:1029F00010F085E08083F70141834F3F31F484EF8D
:102A000093E00E94F91EF7018183F70181818150D3
:102A10008E3F10F086E08183F70112831F3F31F46F
:102A200085EF93E00E94F91EF7018283F70182810E
:102A300081508E3F10F089E0828361E0F701808150
:102A40000E94F81A61E0F70181810E94F81A61E0A2
:102A5000F70182810E94F81AF7011382148215820D
:102A6000C7010F90DF91CF911F91FF90EF900C94D1
:102A7000BE14FC016383548345830C94BE140F93EE
:102A80001F93609374037093750380937603909300
:102A90007703009104011091050120910601309106
:102AA0000701DC01CB01800F911FA21FB31F809390
:102AB0006C0390936D03A0936E03B0936F0382E059
:102AC00090E090936B0380936A030E94AB1960932C
:102AD00070037093710380937203909373031F913B
:102AE0000F910895CF92DF92EF92FF920F931F9371
:102AF0000E94AB19C0907003D0907103E0907203F4
:102B0000F09073038B019C010C191D092E093F09DC
:102B10008091740390917503A0917603B09177032F
:102B2000083E134021053105D0F00196A11DB11DCD
:102B30008093740390937503A0937603B093770307
:102B4000B701A60148515C4F6F4F7F4F4093700310
:102B5000509371036093720370937303C9CF4091D4
:102B60006C0350916D0360916E0370916F03841735
:102B70009507A607B707C8F1E0916803F0916903CC
:102B8000309799F10995611571058105910519F045
:102B90000E943F152AC040910401509105016091A7
:102BA0000601709107018091740390917503A091C3
:102BB0007603B0917703840F951FA61FB71F8093EC
:102BC0006C0390936D03A0936E03B0936F0381E049
:102BD00090E020916A0330916B03232B11F480E085
:102BE00090E090936B0380936A03609174037091FB
:102BF000750380917603909177031F910F91FF9059
:102C0000EF90DF90CF900895CF93CFB7F894809155
:102C10007803811127C0E9E9F3E08491E5E8F3E066
:102C20009491E82FF0E0EE0FFF1FE954FC4FA591BF
:102C3000B491EC91E92321F461E08AE00E94341B15
:102C400061E08AE00E94F81A8CB580618CBD8CB579
:102C500080648CBD61E08DE00E94F81A61E08BE039
:102C60000E94F81A809178038F5F80937803CFBF1A
:102C7000CF910895EF92FF920F931F93CF93DF931D
:102C800000D000D0CDB7DEB7E0917903F0917A03A0
:102C9000339680E090E0DF0113972C91AC0145580A
:102CA0005C4FDA012C939F0122503109D9012C91FC
:102CB000DA0111962C939F0121503109D9012C91F1
:102CC000DA0112962C931297208113962C93049676
:102CD000349680319105F9F6AEE8B3E044E050E077
:102CE00060E070E0CE0101967C0180E090E09D0103
:102CF000275031098901080F191FF8011081F701C8
:102D000011937F01019684309105A1F78A019B01FF
:102D10000370112722273327012B022B032B41F5A8
:102D200099812C81EA81F0E0E959FD4F8491EB8192
:102D3000F0E0E959FD4FE491EA83E22FF0E0E95930
:102D4000FD4FE491EB83E92FF0E0E959FD4FE49169
:102D5000EC838A019B0192E036952795179507959C
:102D60009A95D1F7F801E859FF4FE491E827E983F4
:102D70009D0123503109CD014397FC019081898148
:102D80008927F90180832F5F3F4FCD014297FC01D6
:102D900090818A818927F90180832F5F3F4FCD0180
:102DA0004197FC0190818B818927F90180833F97AE
:102DB00090818C8189278C934F5F5F4F6F4F7F4F3E
:102DC00014964C3251056105710509F08BCF0F90B7
:102DD0000F900F900F90DF91CF911F910F91FF9067
:102DE000EF900895CF93DF934BE254E090E1899FF9
:102DF000E001112420E030E0D901AC0FBD1FA5583F
:102E0000BC4FFA0190E06D918081682760839F5FDD
:102E100034969430C1F74F5F5F4F2C5F3F4F2031A6
:102E2000310551F7DF91CF9108954BE254E024E052
:102E300080E090E0DA01A80FB91FEC91F0E0E959C9
:102E4000FD4FE491EC9301968430910599F7215060
:102E50004C5F5F4F2111ECCF0895EBE2F4E08481E9
:102E600095819483968195839781968387838085C6
:102E700092859087828781859385918783878485D2
:102E800097859487968597879585968785870895F2
:102E9000982F991F9927991F2BE1929F902D11240C
:102EA000880F892708954BE254E024E080E090E009
:102EB000DA01A80FB91FEC91F0E0E959FE4FE49157
:102EC000EC9301968430910599F721504C5F5F4F48
:102ED0002111ECCF0895EBE2F4E08781968197838E
:102EE000958196839481958384838085928590874C
:102EF000828781859385918783878485958594874B
:102F00009685958797859687878708952F923F9214
:102F10004F925F926F927F928F929F92AF92BF92E9
:102F2000CF92DF92EF92FF920F931F93CF93DF9395
:102F300000D0CDB7DEB7542E652E70937A03609320
:102F4000790380933D0490933E0440933B04509357
:102F50003C0489839A830E943A168981282F9A819A
:102F6000392F9BE2E92E94E0F92EA70164E0762E3A
:102F70007E0CF90180E090E06191DA01A80FB91FA1
:102F80006C93049680319105B9F72C5F3F4F4F5FEA
:102F90005F4F7412EECF80E00E94F216AA24A39431
:102FA0000E9415170E942D178BE2C82E84E0D82EA0
:102FB000812C912CF60130808401055D1B4FF801B6
:102FC0002481822F832530854484242C2326B22C0F
:102FD000B82629833A830E9448178325982F9B257A
:102FE000F60191936F0129813A81832F82270E94F4
:102FF0004817298182278B25F8018483822D0E941E
:1030000048173A8183278B25F8018087842D8325F3
:103010000E9448178425B826F801B486FFEF8F1A5E
:103020009F0A24E08216910429F68A2D0E94F21646
:10303000A3948AE0A812B4CF0E9415170E942D17FE
:103040008AE00E94F216852D962DFC0120E030E0EA
:10305000D701A20FB31F4C9141932C5F3F4F2031FA
:103060003105B1F70496EFEFEE1AFE0A7E10EDCFB0
:103070000F900F90DF91CF911F910F91FF90EF90E4
:10308000DF90CF90BF90AF909F908F907F906F9088
:103090005F904F903F902F9008952F923F924F92C4
:1030A0005F926F927F928F929F92AF92BF92CF92D8
:1030B000DF92EF92FF920F931F93CF93DF93CDB7E1
:1030C000DEB72B970FB6F894DEBF0FBECDBF4A8395
:1030D0005B8370937A036093790380933D049093AC
:1030E0003E0440933B0450933C048C8398870E9499
:1030F0003A168C81282F9885392F4BE2A42E44E074
:10310000B42EA50194E09A0D9983F90180E090E036
:103110006191DA01A80FB91F6C9304968031910573
:10312000B9F72C5F3F4F4F5F5F4F99819413EDCFFD
:103130008AE00E94F21699E0392E0E946B170E94D5
:103140005317832D0E94F2168BE2882E84E0982E6E
:10315000412C512CD401CC90F201E55DFB4F7F0155
:10316000D480008524848C2D0E944817582F5B87BB
:103170000E944817182F0E944817782F8D2D7987A5
:103180000E944817982F98870E944817482F4F830E
:103190000E944817682E802F0E944817682F6E8360
:1031A0000E9448178A870E944817782E822D0E9415
:1031B0004817382F3D830E944817282F2C830E94E0
:1031C00048175B85E12FE5277985E7279885E9276B
:1031D000E625FA85EF27E725E827ED25E027E22514
:1031E000D401ED934D01E92FE7274F81E427E62530
:1031F0006E81E627E7252C81E227E827EC25E027EA
:10320000E225D7011496EC9314971727162561270A
:103210006F2767253D81632768276C25962F9D259D
:10322000922518969C93189757274527642676244D
:10323000732627258227C826DC240D251C960C938F
:10324000BFEF4B1A5B0AE4E04E16510409F082CF3F
:103250003A94311072CF0E946B170E94531780E08E
:103260000E94F2168A819B81FC0120E030E0D501AA
:10327000A20FB31F4C9141932C5F3F4F203131057A
:10328000B1F70496FFEFAF1ABF0A29812A11ECCFDC
:103290002B960FB6F894DEBF0FBECDBFDF91CF9156
:1032A0001F910F91FF90EF90DF90CF90BF90AF9064
:1032B0009F908F907F906F905F904F903F902F9056
:1032C00008951F920F920FB60F9211242F933F93E0
:1032D0008F939F93AF93BF9380914004909141044B
:1032E000A0914204B091430430913F0426E0230FA3
:1032F0002D3720F40296A11DB11D05C029E8230F2A
:103300000396A11DB11D20933F0480934004909328
:103310004104A0934204B0934304809144049091EB
:103320004504A0914604B09147040196A11DB11D2A
:103330008093440490934504A0934604B0934704BB
:10334000BF91AF919F918F913F912F910F900FBEA1
:103350000F901F9018952FB7F894609140047091CA
:10336000410480914204909143042FBF08953FB7D8
:10337000F8948091440490914504A0914604B09142
:10338000470426B5A89B05C02F3F19F00196A11D43
:10339000B11D3FBFBA2FA92F982F8827820F911DEB
:1033A000A11DB11DBC01CD0143E0660F771F881F31
:1033B000991F4A95D1F708958F929F92AF92BF922D
:1033C000CF92DF92EF92FF926B017C010E94B719BE
:1033D0004B015C01C114D104E104F10401F10E942C
:1033E0001D1E0E94B719DC01CB0188199909AA0991
:1033F000BB09883E9340A105B10560F321E0C21AE4
:10340000D108E108F10888EE880E83E0981EA11C1F
:10341000B11CC114D104E104F10419F7DBCFFF9012
:10342000EF90DF90CF90BF90AF909F908F900895D6
:10343000789484B5826084BD84B5816084BD85B58F
:10344000826085BD85B5816085BDEEE6F0E0808156
:1034500081608083E1E8F0E0108280818260808377
:10346000808181608083E0E8F0E0808181608083FA
:10347000E1EBF0E0808184608083E0EBF0E080812C
:1034800081608083EAE7F0E08081846080838081CE
:103490008260808380818E7F80838081806880834A
:1034A0001092C10008958E3008F08E5087702091E0
:1034B000080190E4299F90011124822B80937C00C5
:1034C00080917A00806480937A0080917A0086FDF2
:1034D000FCCF809178002091790090E0922B0895A4
:1034E0001F93CF93DF93182FEB0161E00E94F81A2E
:1034F000209711F460E004C0CF3FD10539F461E0BA
:10350000812FDF91CF911F910C94341BE12FF0E0BC
:10351000E959FC4FE491E330F9F048F4E130B9F0B7
:10352000E230A1F584B5806284BDC8BD34C0E73007
:10353000E9F0E83019F1E43049F5809180008062CB
:1035400080938000D0938B00C0938A0024C084B500
:10355000806884BDC7BD1FC0809180008068809353
:103560008000D0938900C093880015C08091B0007E
:1035700080688093B000C093B3000DC08091B0000C
:1035800080628093B000C093B40005C0C038D105FC
:103590000CF0B5CFAFCFDF91CF911F91089583305D
:1035A00081F028F4813099F08230A1F008958730BD
:1035B000A9F08830B9F08430D1F4809180008F7DFB
:1035C00003C0809180008F7780938000089584B538
:1035D0008F7702C084B58F7D84BD08958091B0003F
:1035E0008F7703C08091B0008F7D8093B0000895E5
:1035F000CF93DF9390E0FC01E558FC4F2491FC0150
:10360000E157FC4F8491882361F190E0880F991F66
:10361000FC01E954FC4FC591D491FC01E355FC4FEA
:10362000A591B491611109C09FB7F8948881209544
:1036300082238883EC912E230BC0623061F49FB704
:10364000F8943881822F809583238883EC912E2BE8
:103650002C939FBF06C08FB7F894E8812E2B288348
:103660008FBFDF91CF9108951F93CF93DF93282FC2
:1036700030E0F901E959FC4F8491F901E558FC4F1C
:10368000D491F901E157FC4FC491CC23C9F0162F16
:1036900081110E94CF1AEC2FF0E0EE0FFF1FE355CF
:1036A000FC4FA591B4918FB7F894111105C09C916E
:1036B000ED2FE095E92302C0EC91ED2BEC938FBF49
:1036C000DF91CF911F910895CF93DF93282F30E0A2
:1036D000F901E959FC4F8491F901E558FC4FD49167
:1036E000F901E157FC4FC491CC2391F081110E9464
:1036F000CF1AEC2FF0E0EE0FFF1FED55FC4FA59118
:10370000B491EC91ED2381E090E021F480E002C0DF
:1037100080E090E0DF91CF910895FC01918D228DA2
:10372000892F90E0805C9F4F821B91098F739927AE
:103730000895FC01918D828D981731F0828DE80FEC
:10374000F11D858D90E008958FEF9FEF0895FC01A6
:10375000918D828D981761F0828DDF01A80FB11DC8
:103760005D968C91928D9F5F9F73928F90E00895EC
:103770008FEF9FEF08958BE09DE1892B49F080E06A
:1037800090E0892B29F00E940B1D81110C94000000
:103790000895FC01848DDF01A80FB11DA35ABF4F0E
:1037A0002C91848D90E001968F739927848FA68940
:1037B000B7892C93A089B1898C9180648C93938D67
:1037C000848D981306C00288F389E02D80818F7D57
:1037D00080830895CF93DF93EC01888D8823C9F00F
:1037E000EA89FB89808185FD05C0A889B9898C910A
:1037F00086FD0FC00FB607FCF5CF808185FFF2CFA5
:10380000A889B9898C9185FFEDCFCE010E94C91B93
:10381000E7CFDF91CF910895EF92FF920F931F931F
:10382000CF93DF93EC0181E0888F9B8D8C8D981373
:1038300005C0E889F989808185FD24C0F62E0B8DAD
:1038400010E00F5F1F4F0F731127E02E8C8DE812D1
:103850000CC00FB607FCFACFE889F989808185FF93
:10386000F5CFCE010E94C91BF1CF8B8DFE01E80F71
:10387000F11DE35AFF4FF0820B8FEA89FB898081AB
:10388000806207C0EE89FF896083E889F9898081B9
:103890008064808381E090E0DF91CF911F910F9150
:1038A000FF90EF900895CF92DF92EF92FF921F93D7
:1038B000CF93DF93EC016A017B01122F60E874E87B
:1038C0008EE190E0A70196010E941E1EDA01C90157
:1038D0000197A109B109B695A79597958795AC0170
:1038E000E889F98982E08083411580E15807A8F0D2
:1038F000E889F989108260E472E48FE090E0A70122
:1039000096010E941E1EBA01A90141505109610988
:1039100071097695679557954795EC85FD85508398
:10392000EE85FF854083188EEC89FD891083EA8936
:10393000FB89808180618083EA89FB89808188603E
:103940008083EA89FB89808180688083EA89FB899A
:1039500080818F7D8083DF91CF911F91FF90EF90C9
:10396000DF90CF9008951F920F920FB60F921124FF
:103970002F938F939F93EF93FF93E0915804F091CF
:1039800059048081E0915E04F0915F0482FD12C0D1
:103990009081809161048F5F8F7320916204821700
:1039A00051F0E0916104F0E0E85BFB4F958F80936C
:1039B000610401C08081FF91EF919F918F912F91C0
:1039C0000F900FBE0F901F9018951F920F920FB679
:1039D0000F9211242F933F934F935F936F937F9395
:1039E0008F939F93AF93BF93EF93FF9388E494E0FB
:1039F0000E94C91BFF91EF91BF91AF919F918F9151
:103A00007F916F915F914F913F912F910F900FBEDA
:103A10000F901F90189588E494E00E948D1B21E080
:103A2000892B09F420E0822F0895E8E4F4E0138262
:103A3000128288EE93E0A0E0B0E084839583A683B1
:103A4000B78386EF91E09183808385EC90E0958742
:103A5000848784EC90E09787868780EC90E0918B58
:103A6000808B81EC90E0938B828B82EC90E0958B45
:103A7000848B86EC90E0978B868B118E128E138E42
:103A8000148E089508950E94181A0E94421D0E94E3
:103A90000D02CBEBDBE10E9423022097E1F30E94B1
:103AA000BB1BF9CFCF92DF92EF92FF920F931F9340
:103AB000CF93DF936C017A018B01C0E0D0E0CE158B
:103AC000DF0589F0D8016D918D01D601ED91FC9152
:103AD0000190F081E02DC6010995892B11F47E013A
:103AE00002C02196ECCFC701DF91CF911F910F91BA
:103AF000FF90EF90DF90CF9008956115710579F0F8
:103B0000FB0101900020E9F73197AF01461B570BED
:103B1000DC01ED91FC910280F381E02D099480E0BD
:103B200090E008950C947D1D4F925F926F927F926A
:103B3000EF92FF920F931F93CF93DF93CDB7DEB732
:103B4000A1970FB6F894DEBF0FBECDBF7C01FA017E
:103B5000CB0119A2223008F42AE08E010F5D1F4F1D
:103B6000422E512C612C712CBF01A30192010E94A5
:103B70001E1EF901CA01015011096A3014F4605D7A
:103B800001C0695CD8016C93232B242B252B61F792
:103B9000B801C7010E947D1DA1960FB6F894DEBF43
:103BA0000FBECDBFDF91CF911F910F91FF90EF908E
:103BB0007F906F905F904F9008952115310541F4EB
:103BC000DC01ED91FC910190F081E02D642F0994CE
:103BD0000C94941D9A01462F50E060E070E00C9424
:103BE000DD1D611571058105910511F00C94DA1E3A
:103BF0000895CF93DF9300D000D0CDB7DEB7611525
:103C000071058105910579F09B01AC0169833A83C7
:103C10004B835C830E94D51E29813A814B815C8154
:103C20000E94401E03C060E070E0CB010F900F9037
:103C30000F900F90DF91CF9108950895A1E21A2E71
:103C4000AA1BBB1BFD010DC0AA1FBB1FEE1FFF1F40
:103C5000A217B307E407F50720F0A21BB30BE40B90
:103C6000F50B661F771F881F991F1A9469F76095D7
:103C70007095809590959B01AC01BD01CF01089591
:103C8000052E97FB1EF400940E94571E57FD07D087
:103C90000E941E1E07FC03D04EF40C94571E509534
:103CA0004095309521953F4F4F4F5F4F0895909528
:103CB0008095709561957F4F8F4F9F4F0895A29F7C
:103CC000B001B39FC001A39F700D811D1124911DF0
:103CD000B29F700D811D1124911D08950E945F1ED9
:103CE000A59F900DB49F900DA49F800D911D112450
:103CF0000895B7FF0C946E1E0E946E1E821B930BDC
:103D00000895EE0FFF1F0590F491E02D09948F9216
:103D10009F92AF92BF92CF92DF92EF92FF92CF939A
:103D2000DF93EC01688179818A819B81611571053E
:103D30008105910521F464E279ED8BE597E02DE1B1
:103D400033EF41E050E00E94401E49015A019B01BF
:103D5000AC01A7EAB1E40E946E1E6B017C01ACEEDF
:103D6000B4EFA50194010E947C1EDC01CB018C0DF7
:103D70009D1DAE1DBF1DB7FF03C00197A109B0482F
:103D800088839983AA83BB83BC01CD019F77DF9190
:103D9000CF91FF90EF90DF90CF90BF90AF909F902A
:103DA0008F9008950E94871E089580E091E00E9400
:103DB000871E0895609300017093010180930201B2
:103DC000909303010895FB01DC0104C08D910190E3
:103DD000801921F441505040C8F7881B990B089571
:103DE000FB01DC0102C001900D9241505040D8F718
:103DF0000895F999FECF92BD81BDF89A992780B5B3
:103E00000895262FF999FECF1FBA92BD81BD20BD1E
:103E10000FB6F894FA9AF99A0FBE01960895F8949D
:023E2000FFCFD2
:103E2200010000002C01000001434845434B53555B
:103E32004D20444944204E4F54204D415443482C78
:103E420020494E56414C4944205245434549564526
:103E5200522100416C7265616479207665726966EF
:103E620069636174696F6E206F6E676F696E672137
:103E7200005374617274696E672053657269616C74
:103E8200206D616D61004641494C454420434841E3
:103E92004C4C454E47452C2061736B2061206E656A
:103EA20077206F6E6500476F7420646174612074BF
:103EB2006F20636C6F75642C20627574206E6F20A6
:103EC200636F6E6E656374696F6E2100434F4E4E71
:103ED200454354494F4E204E4F5420564552494671
:103EE20049434154454400494E56414C49442052AD
:103EF2004543454956455200554E4B4E4F574E206D
:103F02004F5045524154494F4E00000000003A02C2
:103F12001905000000000C1C521D8D1BA71B991BCC
:023F2200EA1B98
:00000001FF
